{
  "address": "0x5ffe01Ef2bB0DB65970c6fe1F98De9279451DC24",
  "abi": [
    {
      "inputs": [
        {
          "internalType": "address payable",
          "name": "diceGameAddress",
          "type": "address"
        }
      ],
      "stateMutability": "nonpayable",
      "type": "constructor"
    },
    {
      "anonymous": false,
      "inputs": [
        {
          "indexed": true,
          "internalType": "address",
          "name": "previousOwner",
          "type": "address"
        },
        {
          "indexed": true,
          "internalType": "address",
          "name": "newOwner",
          "type": "address"
        }
      ],
      "name": "OwnershipTransferred",
      "type": "event"
    },
    {
      "inputs": [],
      "name": "diceGame",
      "outputs": [
        {
          "internalType": "contract DiceGame",
          "name": "",
          "type": "address"
        }
      ],
      "stateMutability": "view",
      "type": "function"
    },
    {
      "inputs": [],
      "name": "owner",
      "outputs": [
        {
          "internalType": "address",
          "name": "",
          "type": "address"
        }
      ],
      "stateMutability": "view",
      "type": "function"
    },
    {
      "inputs": [],
      "name": "renounceOwnership",
      "outputs": [],
      "stateMutability": "nonpayable",
      "type": "function"
    },
    {
      "inputs": [],
      "name": "riggedRoll",
      "outputs": [],
      "stateMutability": "nonpayable",
      "type": "function"
    },
    {
      "inputs": [
        {
          "internalType": "address",
          "name": "newOwner",
          "type": "address"
        }
      ],
      "name": "transferOwnership",
      "outputs": [],
      "stateMutability": "nonpayable",
      "type": "function"
    },
    {
      "inputs": [
        {
          "internalType": "address payable",
          "name": "_to",
          "type": "address"
        },
        {
          "internalType": "uint256",
          "name": "_amount",
          "type": "uint256"
        }
      ],
      "name": "withdraw",
      "outputs": [],
      "stateMutability": "nonpayable",
      "type": "function"
    },
    {
      "stateMutability": "payable",
      "type": "receive"
    }
  ],
  "transactionHash": "0x7e120d357532552d9c42d3672af766728d8a6d21bb23193a7262bc0cbe20b525",
  "args": [
    "0xda7F30089F02371EE88f632d12fdfe818B4121d1"
  ],
  "numDeployments": 1,
  "solcInputHash": "a7e0d644474347a236d9c69d8f8d4d0d",
  "bytecode": "0x608060405234801561001057600080fd5b5060405161085338038061085383398101604081905261002f916100ad565b6100383361005d565b600180546001600160a01b0319166001600160a01b03929092169190911790556100dd565b600080546001600160a01b038381166001600160a01b0319831681178455604051919092169283917f8be0079c531659141344cd1fd0a4f28419497f9722a3daafe3b4186f6b6457e09190a35050565b6000602082840312156100bf57600080fd5b81516001600160a01b03811681146100d657600080fd5b9392505050565b610767806100ec6000396000f3fe6080604052600436106100595760003560e01c80636b5e97f814610065578063715018a61461007c5780638da5cb5b146100915780638e288fd1146100c7578063f2fde38b146100e7578063f3fef3a31461010757600080fd5b3661006057005b600080fd5b34801561007157600080fd5b5061007a610127565b005b34801561008857600080fd5b5061007a6102ba565b34801561009d57600080fd5b506000546001600160a01b03165b6040516001600160a01b03909116815260200160405180910390f35b3480156100d357600080fd5b506001546100ab906001600160a01b031681565b3480156100f357600080fd5b5061007a610102366004610603565b6102ce565b34801561011357600080fd5b5061007a610122366004610627565b610347565b60006101316103ea565b905061018c604051806040016040528060018152602001600960f81b8152506040518060400160405280601981526020017f20202052696767656420446963652047616d6520526f6c6c3a00000000000000815250836104d8565b60058111156101e25760405162461bcd60e51b815260206004820181905260248201527f596f7520776572656e277420676f696e6720746f2077696e20616e797761792160448201526064015b60405180910390fd5b66071afd498d00004710156102475760405162461bcd60e51b815260206004820152602560248201527f496e73756666696369656e742062616c616e636520746f20706c6179207468656044820152642067616d6560d81b60648201526084016101d9565b600160009054906101000a90046001600160a01b03166001600160a01b0316637d789dee66071afd498d00006040518263ffffffff1660e01b81526004016000604051808303818588803b15801561029e57600080fd5b505af11580156102b2573d6000803e3d6000fd5b505050505050565b6102c261051f565b6102cc6000610579565b565b6102d661051f565b6001600160a01b03811661033b5760405162461bcd60e51b815260206004820152602660248201527f4f776e61626c653a206e6577206f776e657220697320746865207a65726f206160448201526564647265737360d01b60648201526084016101d9565b61034481610579565b50565b61034f61051f565b6000826001600160a01b03168260405160006040518083038185875af1925050503d806000811461039c576040519150601f19603f3d011682016040523d82523d6000602084013e6103a1565b606091505b50509050806103e55760405162461bcd60e51b815260206004820152601060248201526f2a3930b739b332b9103330b4b632b21760811b60448201526064016101d9565b505050565b600080600160009054906101000a90046001600160a01b03166001600160a01b031663affed0e06040518163ffffffff1660e01b8152600401602060405180830381865afa158015610440573d6000803e3d6000fd5b505050506040513d601f19601f820116820180604052508101906104649190610653565b9050600061047360014361066c565b6001546040805192406020840181905260609290921b6bffffffffffffffffffffffff19169083015260548201849052915060009060740160408051601f19818403018152919052805160209091012090506104d0601082610693565b935050505090565b6103e58383836040516024016104f0939291906106fb565b60408051601f198184030181529190526020810180516001600160e01b0316635821efa160e01b1790526105c9565b6000546001600160a01b031633146102cc5760405162461bcd60e51b815260206004820181905260248201527f4f776e61626c653a2063616c6c6572206973206e6f7420746865206f776e657260448201526064016101d9565b600080546001600160a01b038381166001600160a01b0319831681178455604051919092169283917f8be0079c531659141344cd1fd0a4f28419497f9722a3daafe3b4186f6b6457e09190a35050565b6103448160006a636f6e736f6c652e6c6f679050600080835160208501845afa505050565b6001600160a01b038116811461034457600080fd5b60006020828403121561061557600080fd5b8135610620816105ee565b9392505050565b6000806040838503121561063a57600080fd5b8235610645816105ee565b946020939093013593505050565b60006020828403121561066557600080fd5b5051919050565b8181038181111561068d57634e487b7160e01b600052601160045260246000fd5b92915050565b6000826106b057634e487b7160e01b600052601260045260246000fd5b500690565b6000815180845260005b818110156106db576020818501810151868301820152016106bf565b506000602082860101526020601f19601f83011685010191505092915050565b60608152600061070e60608301866106b5565b828103602084015261072081866106b5565b91505082604083015294935050505056fea2646970667358221220dd43038d0aee2555d727473fb5acce4ef3128eab137f33a5abb2e63d5789bcc964736f6c63430008110033",
  "devdoc": {
    "kind": "dev",
    "methods": {
      "owner()": {
        "details": "Returns the address of the current owner."
      },
      "renounceOwnership()": {
        "details": "Leaves the contract without owner. It will not be possible to call `onlyOwner` functions anymore. Can only be called by the current owner. NOTE: Renouncing ownership will leave the contract without an owner, thereby removing any functionality that is only available to the owner."
      },
      "transferOwnership(address)": {
        "details": "Transfers ownership of the contract to a new account (`newOwner`). Can only be called by the current owner."
      }
    },
    "version": 1
  },
  "userdoc": {
    "kind": "user",
    "methods": {},
    "version": 1
  },
  "storageLayout": {
    "storage": [
      {
        "astId": 7,
        "contract": "contracts/RiggedRoll.sol:RiggedRoll",
        "label": "_owner",
        "offset": 0,
        "slot": "0",
        "type": "t_address"
      },
      {
        "astId": 308,
        "contract": "contracts/RiggedRoll.sol:RiggedRoll",
        "label": "diceGame",
        "offset": 0,
        "slot": "1",
        "type": "t_contract(DiceGame)298"
      }
    ],
    "types": {
      "t_address": {
        "encoding": "inplace",
        "label": "address",
        "numberOfBytes": "20"
      },
      "t_contract(DiceGame)298": {
        "encoding": "inplace",
        "label": "contract DiceGame",
        "numberOfBytes": "20"
      }
    }
  }
}