{
  "address": "0x7a68134f70498d96180623E90cBd3696a50DB0F1",
  "abi": [
    {
      "inputs": [
        {
          "internalType": "address",
          "name": "exampleExternalContractAddress",
          "type": "address"
        }
      ],
      "stateMutability": "nonpayable",
      "type": "constructor"
    },
    {
      "anonymous": false,
      "inputs": [
        {
          "indexed": true,
          "internalType": "address",
          "name": "sender",
          "type": "address"
        },
        {
          "indexed": false,
          "internalType": "uint256",
          "name": "amount",
          "type": "uint256"
        }
      ],
      "name": "Stake",
      "type": "event"
    },
    {
      "inputs": [
        {
          "internalType": "address",
          "name": "",
          "type": "address"
        }
      ],
      "name": "balances",
      "outputs": [
        {
          "internalType": "uint256",
          "name": "",
          "type": "uint256"
        }
      ],
      "stateMutability": "view",
      "type": "function"
    },
    {
      "inputs": [],
      "name": "currentTimestamp",
      "outputs": [
        {
          "internalType": "uint256",
          "name": "",
          "type": "uint256"
        }
      ],
      "stateMutability": "view",
      "type": "function"
    },
    {
      "inputs": [],
      "name": "deadline",
      "outputs": [
        {
          "internalType": "uint256",
          "name": "",
          "type": "uint256"
        }
      ],
      "stateMutability": "view",
      "type": "function"
    },
    {
      "inputs": [],
      "name": "exampleExternalContract",
      "outputs": [
        {
          "internalType": "contract ExampleExternalContract",
          "name": "",
          "type": "address"
        }
      ],
      "stateMutability": "view",
      "type": "function"
    },
    {
      "inputs": [],
      "name": "execute",
      "outputs": [],
      "stateMutability": "nonpayable",
      "type": "function"
    },
    {
      "inputs": [],
      "name": "stake",
      "outputs": [],
      "stateMutability": "payable",
      "type": "function"
    },
    {
      "inputs": [],
      "name": "threshold",
      "outputs": [
        {
          "internalType": "uint256",
          "name": "",
          "type": "uint256"
        }
      ],
      "stateMutability": "view",
      "type": "function"
    },
    {
      "inputs": [],
      "name": "timeLeft",
      "outputs": [
        {
          "internalType": "uint256",
          "name": "",
          "type": "uint256"
        }
      ],
      "stateMutability": "view",
      "type": "function"
    },
    {
      "inputs": [
        {
          "internalType": "address payable",
          "name": "_to",
          "type": "address"
        },
        {
          "internalType": "uint256",
          "name": "_amount",
          "type": "uint256"
        }
      ],
      "name": "transfer",
      "outputs": [],
      "stateMutability": "nonpayable",
      "type": "function"
    },
    {
      "inputs": [],
      "name": "withdraw",
      "outputs": [],
      "stateMutability": "payable",
      "type": "function"
    },
    {
      "stateMutability": "payable",
      "type": "receive"
    }
  ],
  "transactionHash": "0x5bbfa2a41a73f074c0fb4fb59f0a16bba13b4323c188402f98f9ab6952638801",
  "args": [
    "0x230b48ab30aeC61BDa73B6ABF4b14D6bf49AdaB4"
  ],
  "numDeployments": 1,
  "solcInputHash": "cdd9c8f5bc347fed3fdd465380ad9960",
  "bytecode": "0x6080604052610011426203f480610096565b6002554260035534801561002457600080fd5b506040516107ff3803806107ff83398101604081905261004391610068565b600080546001600160a01b0319166001600160a01b03929092169190911790556100ba565b600060208284031215610079578081fd5b81516001600160a01b038116811461008f578182fd5b9392505050565b600082198211156100b557634e487b7160e01b81526011600452602481fd5b500190565b610736806100c96000396000f3fe6080604052600436106100955760003560e01c80633ccfd60b116100595780633ccfd60b1461013257806342cde4e81461013a57806361461954146101565780639f75f2271461016b578063a9059cbb146101a357600080fd5b80631300a6d1146100a95780631e2ff94f146100d157806327e235e3146100e757806329dcb0cf146101145780633a4b66f11461012a57600080fd5b366100a4576100a26101c3565b005b600080fd5b3480156100b557600080fd5b506100be610283565b6040519081526020015b60405180910390f35b3480156100dd57600080fd5b506100be60035481565b3480156100f357600080fd5b506100be6101023660046105d1565b60016020526000908152604090205481565b34801561012057600080fd5b506100be60025481565b6100a26101c3565b6100a26102a7565b34801561014657600080fd5b506100be670de0b6b3a764000081565b34801561016257600080fd5b506100a26103c6565b34801561017757600080fd5b5060005461018b906001600160a01b031681565b6040516001600160a01b0390911681526020016100c8565b3480156101af57600080fd5b506100a26101be3660046105f4565b610532565b60025442106102285760405162461bcd60e51b815260206004820152602660248201527f5374616b696e67206973206e6f7420616c6c6f77656420616674657220646561604482015265646c696e652160d01b60648201526084015b60405180910390fd5b33600090815260016020526040812080543492906102479084906106a6565b909155505060405134815233907febedb8b3c678666e7f36970bc8f57abf6d8fa2e828c0da91ea5b75bf68ed101a9060200160405180910390a2565b600042600254106102a1574260025461029c91906106be565b905090565b50600090565b60008054906101000a90046001600160a01b03166001600160a01b0316639d9a7fe96040518163ffffffff1660e01b815260040160206040518083038186803b1580156102f357600080fd5b505afa158015610307573d6000803e3d6000fd5b505050506040513d601f19601f8201168201806040525081019061032b919061061f565b156103485760405162461bcd60e51b815260040161021f9061063f565b336000908152600160205260409020546103a45760405162461bcd60e51b815260206004820152601760248201527f4e6f2062616c616e636520746f20776974686472617721000000000000000000604482015260640161021f565b3360008181526001602052604081208054919055906103c39082610532565b50565b60008054906101000a90046001600160a01b03166001600160a01b0316639d9a7fe96040518163ffffffff1660e01b815260040160206040518083038186803b15801561041257600080fd5b505afa158015610426573d6000803e3d6000fd5b505050506040513d601f19601f8201168201806040525081019061044a919061061f565b156104675760405162461bcd60e51b815260040161021f9061063f565b6002544210156104b95760405162461bcd60e51b815260206004820152601c60248201527f446561646c696e6520686173206e6f7420796574207061737365642100000000604482015260640161021f565b670de0b6b3a764000047106105305760008054906101000a90046001600160a01b03166001600160a01b031663522e1177476040518263ffffffff1660e01b81526004016000604051808303818588803b15801561051657600080fd5b505af115801561052a573d6000803e3d6000fd5b50505050505b565b6000826001600160a01b03168260405160006040518083038185875af1925050503d806000811461057f576040519150601f19603f3d011682016040523d82523d6000602084013e610584565b606091505b50509050806105cc5760405162461bcd60e51b81526020600482015260146024820152732330b4b632b2103a379039b2b7321022ba3432b960611b604482015260640161021f565b505050565b6000602082840312156105e2578081fd5b81356105ed816106eb565b9392505050565b60008060408385031215610606578081fd5b8235610611816106eb565b946020939093013593505050565b600060208284031215610630578081fd5b815180151581146105ed578182fd5b60208082526041908201527f5468697320636f6e74726163742068617320726561636865642069747320676f60408201527f616c2c206e6f206675727468657220616374696f6e20697320616c6c6f7765646060820152602160f81b608082015260a00190565b600082198211156106b9576106b96106d5565b500190565b6000828210156106d0576106d06106d5565b500390565b634e487b7160e01b600052601160045260246000fd5b6001600160a01b03811681146103c357600080fdfea26469706673582212208d391f9eebf7da1ecf6ab56ac1d422c8bf8e14a1c853f0166adb273c57ee7a5b64736f6c63430008040033",
  "devdoc": {
    "kind": "dev",
    "methods": {},
    "version": 1
  },
  "userdoc": {
    "kind": "user",
    "methods": {},
    "version": 1
  },
  "storageLayout": {
    "storage": [
      {
        "astId": 19,
        "contract": "contracts/Staker.sol:Staker",
        "label": "exampleExternalContract",
        "offset": 0,
        "slot": "0",
        "type": "t_contract(ExampleExternalContract)12"
      },
      {
        "astId": 23,
        "contract": "contracts/Staker.sol:Staker",
        "label": "balances",
        "offset": 0,
        "slot": "1",
        "type": "t_mapping(t_address,t_uint256)"
      },
      {
        "astId": 35,
        "contract": "contracts/Staker.sol:Staker",
        "label": "deadline",
        "offset": 0,
        "slot": "2",
        "type": "t_uint256"
      },
      {
        "astId": 39,
        "contract": "contracts/Staker.sol:Staker",
        "label": "currentTimestamp",
        "offset": 0,
        "slot": "3",
        "type": "t_uint256"
      }
    ],
    "types": {
      "t_address": {
        "encoding": "inplace",
        "label": "address",
        "numberOfBytes": "20"
      },
      "t_contract(ExampleExternalContract)12": {
        "encoding": "inplace",
        "label": "contract ExampleExternalContract",
        "numberOfBytes": "20"
      },
      "t_mapping(t_address,t_uint256)": {
        "encoding": "mapping",
        "key": "t_address",
        "label": "mapping(address => uint256)",
        "numberOfBytes": "32",
        "value": "t_uint256"
      },
      "t_uint256": {
        "encoding": "inplace",
        "label": "uint256",
        "numberOfBytes": "32"
      }
    }
  }
}