{
  "address": "0xa05912E587e79ff622656c5309AA6d4feF817b64",
  "abi": [
    {
      "anonymous": false,
      "inputs": [
        {
          "indexed": false,
          "internalType": "address",
          "name": "",
          "type": "address"
        },
        {
          "indexed": false,
          "internalType": "uint256",
          "name": "",
          "type": "uint256"
        }
      ],
      "name": "Challenged",
      "type": "event"
    },
    {
      "anonymous": false,
      "inputs": [
        {
          "indexed": false,
          "internalType": "address",
          "name": "",
          "type": "address"
        }
      ],
      "name": "Closed",
      "type": "event"
    },
    {
      "anonymous": false,
      "inputs": [
        {
          "indexed": false,
          "internalType": "address",
          "name": "",
          "type": "address"
        },
        {
          "indexed": false,
          "internalType": "uint256",
          "name": "",
          "type": "uint256"
        }
      ],
      "name": "Opened",
      "type": "event"
    },
    {
      "anonymous": false,
      "inputs": [
        {
          "indexed": true,
          "internalType": "address",
          "name": "previousOwner",
          "type": "address"
        },
        {
          "indexed": true,
          "internalType": "address",
          "name": "newOwner",
          "type": "address"
        }
      ],
      "name": "OwnershipTransferred",
      "type": "event"
    },
    {
      "anonymous": false,
      "inputs": [
        {
          "indexed": false,
          "internalType": "address",
          "name": "",
          "type": "address"
        },
        {
          "indexed": false,
          "internalType": "uint256",
          "name": "",
          "type": "uint256"
        }
      ],
      "name": "Withdrawn",
      "type": "event"
    },
    {
      "inputs": [],
      "name": "challengeChannel",
      "outputs": [],
      "stateMutability": "nonpayable",
      "type": "function"
    },
    {
      "inputs": [],
      "name": "defundChannel",
      "outputs": [],
      "stateMutability": "nonpayable",
      "type": "function"
    },
    {
      "inputs": [],
      "name": "fundChannel",
      "outputs": [],
      "stateMutability": "payable",
      "type": "function"
    },
    {
      "inputs": [],
      "name": "owner",
      "outputs": [
        {
          "internalType": "address",
          "name": "",
          "type": "address"
        }
      ],
      "stateMutability": "view",
      "type": "function"
    },
    {
      "inputs": [],
      "name": "renounceOwnership",
      "outputs": [],
      "stateMutability": "nonpayable",
      "type": "function"
    },
    {
      "inputs": [
        {
          "internalType": "address",
          "name": "channel",
          "type": "address"
        }
      ],
      "name": "timeLeft",
      "outputs": [
        {
          "internalType": "uint256",
          "name": "",
          "type": "uint256"
        }
      ],
      "stateMutability": "view",
      "type": "function"
    },
    {
      "inputs": [
        {
          "internalType": "address",
          "name": "newOwner",
          "type": "address"
        }
      ],
      "name": "transferOwnership",
      "outputs": [],
      "stateMutability": "nonpayable",
      "type": "function"
    },
    {
      "inputs": [
        {
          "components": [
            {
              "internalType": "uint256",
              "name": "updatedBalance",
              "type": "uint256"
            },
            {
              "components": [
                {
                  "internalType": "bytes32",
                  "name": "r",
                  "type": "bytes32"
                },
                {
                  "internalType": "bytes32",
                  "name": "s",
                  "type": "bytes32"
                },
                {
                  "internalType": "uint8",
                  "name": "v",
                  "type": "uint8"
                }
              ],
              "internalType": "struct Streamer.Signature",
              "name": "sig",
              "type": "tuple"
            }
          ],
          "internalType": "struct Streamer.Voucher",
          "name": "voucher",
          "type": "tuple"
        }
      ],
      "name": "withdrawEarnings",
      "outputs": [],
      "stateMutability": "nonpayable",
      "type": "function"
    }
  ],
  "transactionHash": "0xeb89b472872450cf08176f0bfba783403c6e766e369ea66a32070b60a0ee8e9c",
  "args": [],
  "numDeployments": 1,
  "solcInputHash": "3e35d4f88a2f3a887c22e4f96607daea",
  "bytecode": "0x608060405234801561001057600080fd5b5061001a3361001f565b61006f565b600080546001600160a01b038381166001600160a01b0319831681178455604051919092169283917f8be0079c531659141344cd1fd0a4f28419497f9722a3daafe3b4186f6b6457e09190a35050565b6109aa8061007e6000396000f3fe60806040526004361061007b5760003560e01c806388a025661161004e57806388a02566146100e75780638da5cb5b14610107578063bc8641b11461012f578063f2fde38b1461014457600080fd5b8063157f83ad146100805780631e400d601461008a578063405c649c1461009f578063715018a6146100d2575b600080fd5b610088610164565b005b34801561009657600080fd5b50610088610281565b3480156100ab57600080fd5b506100bf6100ba3660046108c9565b6103cd565b6040519081526020015b60405180910390f35b3480156100de57600080fd5b50610088610440565b3480156100f357600080fd5b506100886101023660046108f7565b610454565b34801561011357600080fd5b506000546040516001600160a01b0390911681526020016100c9565b34801561013b57600080fd5b506100886106fe565b34801561015057600080fd5b5061008861015f3660046108c9565b6107a6565b6706f05b59d3b200003410156101d55760405162461bcd60e51b815260206004820152602b60248201527f302e3520455448206d7573742062652070726f766964656420746f206f70656e60448201526a2061206368616e6e656c2160a81b60648201526084015b60405180910390fd5b33600090815260016020526040902054156102325760405162461bcd60e51b815260206004820152601f60248201527f416e206f70656e206368616e6e656c20616c726561647920657869737473210060448201526064016101cc565b3360008181526001602090815260409182902034908190558251938452908301527fc4b27f09c64550fd678a5b3c3a00f454814732e346e0f1c79d0add8f980346de91015b60405180910390a1565b33600090815260026020526040902054158015906102ae5750336000908152600260205260409020544210155b6102fa5760405162461bcd60e51b815260206004820152601860248201527f4e6f20636c6f73696e67206368616e6e656c20666f756e64000000000000000060448201526064016101cc565b336000818152600160205260408082205490519192918381818185875af1925050503d8060008114610348576040519150601f19603f3d011682016040523d82523d6000602084013e61034d565b606091505b50509050806103975760405162461bcd60e51b815260206004820152601660248201527514185e5b595b9d081d1bc8149d58994819985a5b195960521b60448201526064016101cc565b6040513381527f13607bf9d2dd20e1f3a7daf47ab12856f8aad65e6ae7e2c75ace3d0c424a40e89060200160405180910390a150565b6001600160a01b038116600090815260026020526040812054158061040957506001600160a01b03821660009081526002602052604090205442115b1561041657506000919050565b6001600160a01b03821660009081526002602052604090205461043a904290610947565b92915050565b61044861081f565b6104526000610879565b565b61045c61081f565b60408051823560208083019190915282518083038201815282840190935282519201919091207f19457468657265756d205369676e6564204d6573736167653a0a3332000000006060830152607c820181905290600090609c0160408051601f198184030181529190528051602082012090915060006001826104e5608088016060890161090e565b604080516000815260208082018084529490945260ff9092168282015291880135606082015290870135608082015260a0016020604051602081039080840390855afa158015610539573d6000803e3d6000fd5b505060408051601f1901516001600160a01b03811660009081526001602052919091205490925086351090506105bd5760405162461bcd60e51b815260206004820152602360248201527f496e73756666696369656e742062616c616e636520696e20746865206368616e6044820152621b995b60ea1b60648201526084016101cc565b6001600160a01b0381166000908152600160205260408120546105e290873590610947565b6001600160a01b0383166000908152600160205260408120883590559091506106136000546001600160a01b031690565b6001600160a01b03168260405160006040518083038185875af1925050503d806000811461065d576040519150601f19603f3d011682016040523d82523d6000602084013e610662565b606091505b50509050806106b35760405162461bcd60e51b815260206004820152601760248201527f5061796d656e7420746f206f776e6572206661696c656400000000000000000060448201526064016101cc565b604080516001600160a01b0385168152602081018490527f7084f5476618d8e60b11ef0d7d3f06914655adb8793e28ff7f018d4c76d505d5910160405180910390a150505050505050565b336000908152600160205260409020546107525760405162461bcd60e51b8152602060048201526015602482015274139bc81bdc195b8818da185b9b995b08199bdd5b99605a1b60448201526064016101cc565b61075d42601e61092f565b3360008181526002602090815260409182902084905581519283528201929092527f7a180232c19fd38c83e493856a42688c477bae7e82039103b2c1ea6a6162e5299101610277565b6107ae61081f565b6001600160a01b0381166108135760405162461bcd60e51b815260206004820152602660248201527f4f776e61626c653a206e6577206f776e657220697320746865207a65726f206160448201526564647265737360d01b60648201526084016101cc565b61081c81610879565b50565b6000546001600160a01b031633146104525760405162461bcd60e51b815260206004820181905260248201527f4f776e61626c653a2063616c6c6572206973206e6f7420746865206f776e657260448201526064016101cc565b600080546001600160a01b038381166001600160a01b0319831681178455604051919092169283917f8be0079c531659141344cd1fd0a4f28419497f9722a3daafe3b4186f6b6457e09190a35050565b6000602082840312156108da578081fd5b81356001600160a01b03811681146108f0578182fd5b9392505050565b600060808284031215610908578081fd5b50919050565b60006020828403121561091f578081fd5b813560ff811681146108f0578182fd5b600082198211156109425761094261095e565b500190565b6000828210156109595761095961095e565b500390565b634e487b7160e01b600052601160045260246000fdfea264697066735822122048bb5d2ed526af206511a09e1e0f9dccf05a390bcb2e43b74e82fda1e90c36c164736f6c63430008040033",
  "devdoc": {
    "kind": "dev",
    "methods": {
      "owner()": {
        "details": "Returns the address of the current owner."
      },
      "renounceOwnership()": {
        "details": "Leaves the contract without owner. It will not be possible to call `onlyOwner` functions anymore. Can only be called by the current owner. NOTE: Renouncing ownership will leave the contract without an owner, thereby removing any functionality that is only available to the owner."
      },
      "transferOwnership(address)": {
        "details": "Transfers ownership of the contract to a new account (`newOwner`). Can only be called by the current owner."
      }
    },
    "version": 1
  },
  "userdoc": {
    "kind": "user",
    "methods": {},
    "version": 1
  },
  "storageLayout": {
    "storage": [
      {
        "astId": 7,
        "contract": "contracts/Streamer.sol:Streamer",
        "label": "_owner",
        "offset": 0,
        "slot": "0",
        "type": "t_address"
      },
      {
        "astId": 166,
        "contract": "contracts/Streamer.sol:Streamer",
        "label": "balances",
        "offset": 0,
        "slot": "1",
        "type": "t_mapping(t_address,t_uint256)"
      },
      {
        "astId": 170,
        "contract": "contracts/Streamer.sol:Streamer",
        "label": "canCloseAt",
        "offset": 0,
        "slot": "2",
        "type": "t_mapping(t_address,t_uint256)"
      }
    ],
    "types": {
      "t_address": {
        "encoding": "inplace",
        "label": "address",
        "numberOfBytes": "20"
      },
      "t_mapping(t_address,t_uint256)": {
        "encoding": "mapping",
        "key": "t_address",
        "label": "mapping(address => uint256)",
        "numberOfBytes": "32",
        "value": "t_uint256"
      },
      "t_uint256": {
        "encoding": "inplace",
        "label": "uint256",
        "numberOfBytes": "32"
      }
    }
  }
}